:020000040800F2
:10000000004001204D3C0008351300083B13000858
:1000100041130008471300084D13000800000000BA
:100020000000000000000000000000005313000862
:100030005F130008000000006B130008771300082E
:10004000953C0008953C0008953C0008953C00084C
:10005000953C0008953C0008953C0008953C00083C
:10006000953C0008953C0008953C0008953C00082C
:10007000953C0008953C0008953C0008953C00081C
:10008000953C0008953C0008953C0008953C00080C
:10009000953C0008953C0008953C0008953C0008FC
:1000A000953C0008953C0008953C0008953C0008EC
:1000B000953C0008953C0008953C0008953C0008DC
:1000C000953C0008953C0008953C0008953C0008CC
:1000D000953C0008953C0008953C0008953C0008BC
:1000E000953C0008953C0008953C0008953C0008AC
:1000F000953C000800000000953C0008953C000875
:10010000953C0008953C0008953C0008953C00088B
:10011000953C0008953C0008953C00080000000054
:10012000953C0008000000000000000000000000F6
:0C01300000000000000000005FF808F173
:10013C0010B5054C237833B9044B13B10448AFF315
:10014C0000800123237010BD70000020000000000F
:10015C003045000808B5034B1BB103490348AFF306
:10016C00008008BD0000000074000020304500082D
:10017C00034613F8012B002AFBD1181A01387047DB
:10018C0080F0004002E000BF81F0004142001FBF40
:10019C005FEA410392EA030F7FEA226C7FEA236C49
:1001AC006AD04FEA1262D2EB1363C1BFD21841403E
:1001BC0048404140B8BF5B42192B88BF704710F0D4
:1001CC00004F40F4000020F07F4018BF404211F077
:1001DC00004F41F4000121F07F4118BF494292EADF
:1001EC00030F3FD0A2F1010241FA03FC10EB0C000B
:1001FC00C3F1200301FA03F100F0004302D5494298
:10020C0060EB4000B0F5000F13D3B0F1807F06D344
:10021C0040084FEA310102F10102FE2A51D2B1F13C
:10022C00004F40EBC25008BF20F0010040EA030031
:10023C007047490040EB000010F4000FA2F10102DE
:10024C00EDD1B0FA80FCACF1080CB2EB0C0200FA68
:10025C000CF0AABF00EBC25052421843BCBFD040B6
:10026C001843704792F0000F81F4000106BF80F430
:10027C0000000132013BB5E74FEA41037FEA226CF3
:10028C0018BF7FEA236C21D092EA030F04D092F0BE
:10029C00000F08BF0846704790EA010F1CBF0020F2
:1002AC00704712F07F4F04D1400028BF40F000404F
:1002BC00704712F100723CBF00F50000704700F06F
:1002CC00004343F0FE4040F4000070477FEA226296
:1002DC0016BF08467FEA23630146420206BF5FEA67
:1002EC00412390EA010F40F4800070474FF0000367
:1002FC0004E000BF10F0004348BF40425FEA000C2E
:10030C0008BF704743F0964301464FF000001CE0D5
:10031C0050EA010208BF70474FF000030AE000BF2B
:10032C0050EA010208BF704711F0004302D5404269
:10033C0061EB41015FEA010C02BF844601460020DB
:10034C0043F0B64308BFA3F18053A3F50003BCFAF6
:10035C008CF2083AA3EBC25310DB01FA02FC6344A3
:10036C0000FA02FCC2F12002BCF1004F20FA02F2AA
:10037C0043EB020008BF20F00100704702F120029D
:10038C0001FA02FCC2F1200250EA4C0021FA02F2FE
:10039C0043EB020008BF20EADC7070474FF0FF0C03
:1003AC001CEAD0521EBF1CEAD15392EA0C0F93EAFE
:1003BC000C0F6FD01A4480EA010C400218BF5FEAA0
:1003CC0041211ED04FF0006343EA501043EA511113
:1003DC00A0FB01310CF00040B1F5000F3EBF49000D
:1003EC0041EAD3715B0040EA010062F17F02FD2A11
:1003FC001DD8B3F1004F40EBC25008BF20F00100F4
:10040C00704790F0000F0CF0004C08BF49024CEA0A
:10041C00502040EA51207F3AC2BFD2F1FF0340EA9C
:10042C00C250704740F400004FF00003013A5DDC0D
:10043C0012F1190FDCBF00F000407047C2F100024E
:10044C00410021FA02F1C2F1200200FA02FC5FEA3B
:10045C00310040F1000053EA4C0308BF20EADC7085
:10046C00704792F0000F00F0004C02BF400010F4F7
:10047C00000F013AF9D040EA0C0093F0000F01F0A4
:10048C00004C02BF490011F4000F013BF9D041EAC6
:10049C000C018FE70CEAD15392EA0C0F18BF93EAC8
:1004AC000C0F0AD030F0004C18BF31F0004CD8D1F2
:1004BC0080EA010000F00040704790F0000F17BF79
:1004CC0090F0004F084691F0000F91F0004F14D0BF
:1004DC0092EA0C0F01D142020FD193EA0C0F03D117
:1004EC004B0218BF084608D180EA010000F000401A
:1004FC0040F0FE4040F40000704740F0FE4040F4F5
:10050C00400070474FF0FF0C1CEAD0521EBF1CEA93
:10051C00D15392EA0C0F93EA0C0F69D0A2EB0302B1
:10052C0080EA010C49024FEA402037D04FF080534B
:10053C0043EA111143EA10130CF000408B4238BF10
:10054C005B0042F17D024FF4000C8B4224BF5B1A1E
:10055C0040EA0C00B3EB510F24BFA3EB510340EA6C
:10056C005C00B3EB910F24BFA3EB910340EA9C001A
:10057C00B3EBD10F24BFA3EBD10340EADC001B018A
:10058C0018BF5FEA1C1CE0D1FD2A3FF650AF8B422E
:10059C0040EBC25008BF20F0010070470CF0004C3B
:1005AC004CEA50207F32C2BFD2F1FF0340EAC25066
:1005BC00704740F400004FF00003013A37E792F027
:1005CC00000F00F0004C02BF400010F4000F013A85
:1005DC00F9D040EA0C0093F0000F01F0004C02BF80
:1005EC00490011F4000F013BF9D041EA0C0195E7E9
:1005FC000CEAD15392EA0C0F08D142027FF47DAF82
:10060C0093EA0C0F7FF470AF084676E793EA0C0F71
:10061C0004D14B023FF44CAF08466EE730F0004C6F
:10062C0018BF31F0004CCAD130F000427FF45CAFFF
:10063C0031F000437FF43CAF5FE700BF4FF0FF3C6D
:10064C0006E000BF4FF0010C02E000BF4FF0010CC0
:10065C004DF804CD4FEA40024FEA41037FEA226C89
:10066C0018BF7FEA236C11D001B052EA530C18BFAB
:10067C0090EA010F58BFB2EB030088BFC81738BF10
:10068C006FEAE17018BF40F0010070477FEA226CFE
:10069C0002D15FEA402C05D17FEA236CE4D15FEAFA
:1006AC00412CE1D05DF8040B704700BF844608462E
:1006BC006146FFE70FB5FFF7C9FF002848BF10F1EF
:1006CC00000F0FBD4DF808EDFFF7F4FF0CBF012034
:1006DC0000205DF808FB00BF4DF808EDFFF7EAFFBE
:1006EC0034BF012000205DF808FB00BF4DF808ED79
:1006FC00FFF7E0FF94BF012000205DF808FB00BF6E
:10070C004DF808EDFFF7D2FF94BF012000205DF8F3
:10071C0008FB00BF4DF808EDFFF7C8FF34BF012000
:10072C0000205DF808FB00BF42000ED2B2F1FE4F74
:10073C000BD34FF09E03B3EB126209D44FEA0023A4
:10074C0043F0004323FA02F070474FF0000070476B
:10075C0012F1610F01D1420202D14FF0FF3070470C
:10076C004FF00000704700BF53B94AB9002908BFC9
:10077C0000281CBF4FF0FF314FF0FF3000F074B970
:10078C00ADF1080C6DE904CE00F006F8DDF804E0DC
:10079C00DDE9022304B070472DE9F0478C4604468E
:1007AC00089E002B4BD18A42154667D9B2FA82F2C9
:1007BC004AB1C2F1200701FA02F320FA07F795407B
:1007CC0047EA030C94404FEA154EBCFBFEF71FFAA8
:1007DC0085F80EFB17C307FB08F9210C41EA03430C
:1007EC00994509D9EB1807F1FF3180F01C81994527
:1007FC0040F21981023F2B44A3EB0903B3FBFEF03B
:10080C000EFB103300FB08F1A4B244EA0344A142EE
:10081C0009D92C1900F1FF3380F00781A14240F275
:10082C00048102382C4440EA07400027641A1EB1A8
:10083C000023D440C6E900433946BDE8F0878B421B
:10084C0009D9002E00F0EC800027C6E900013846DB
:10085C003946BDE8F087B3FA83F7002F48D18B42B5
:10086C0002D3824200F2FB80841A61EB0303012065
:10087C009C46002EE0D0C6E9004CDDE702B9FFDE55
:10088C00B2FA82F2002A40F08F800127491B4FEA0E
:10089C0015481FFA85F9B1FBF8FE08FB1E1109FB80
:1008AC000EF04FEA144C4CEA0143984207D9EB186E
:1008BC000EF1FF3102D2984200F2CD808E461B1A07
:1008CC00B3FBF8F008FB103309FB00F9A4B244EABF
:1008DC000344A14507D92C1900F1FF3302D2A145DD
:1008EC0000F2B6801846A4EB090440EA0E409EE7DD
:1008FC00C7F12005BB4022FA05FC4CEA030C21FA97
:10090C0005F44FEA1C4EB4FBFEF91FFA8CF80EFBF3
:10091C00194420FA05F3B94009FB08FA19430B0CEA
:10092C0043EA0444A24502FA07F200FA07F30BD992
:10093C001CEB040409F1FF3080F08880A24540F2E2
:10094C008580A9F102096444A4EB0A04B4FBFEF00F
:10095C000EFB104400FB08FA89B241EA0444A2459C
:10096C0008D91CEB040400F1FF316BD2A24569D904
:10097C000238644440EA0940A0FB0289A4EB0A0453
:10098C004C454146CE4654D351D0002E69D05A1A0C
:10099C0064EB0E0404FA05F522FA07F3FC401D4340
:1009AC00C6E90054002747E79540C2F1200321FA1D
:1009BC0003F04FEA1548B0FBF8F71FFA85F908FB6E
:1009CC00170024FA03F3914007FB09FC0B43190CA5
:1009DC0041EA00418C4504FA02F407D9691807F181
:1009EC00FF3031D28C452FD9023F2944A1EB0C01A9
:1009FC00B1FBF8F008FB101C00FB09FE99B241EAB0
:100A0C000C418E4507D9691800F1FF3318D28E4579
:100A1C0016D902382944A1EB0E0140EA07473AE700
:100A2C003746304608E70F46E6E61846FBE64345F0
:100A3C00ABD2B8EB020169EB0C0201389646A4E785
:100A4C001846E8E7084695E70746CFE781467BE777
:100A5C0002382C4447E7AEF1020E2B442FE7384600
:100A6C0007E73746E8E600BF704700BF80B58AB09D
:100A7C0000AF07F1140300221A605A609A60DA6022
:100A8C001A612A4BDB69294A43F00403D361274BD3
:100A9C00DB6903F004033B613B69244BDB69234AAC
:100AAC0043F02003D361214BDB6903F02003FB608F
:100ABC00FB681E4BDB691D4A43F00103D3611B4BE2
:100ACC00DB6903F00103BB60BB68184BDB69174A99
:100ADC0043F00203D361154BDB6903F002037B6027
:100AEC007B6800222021124800F0EEFF4FF40053E7
:100AFC007B61104BBB610023FB6107F114031946AA
:100B0C000D4800F053FE20237B610123BB610023C1
:100B1C00FB6102233B6207F114031946044800F001
:100B2C0045FE00BF2837BD4680BD00BF00380240DF
:100B3C0000000240000011100008024080B500AF18
:100B4C00124B134A1A60114B124A5A600F4B002277
:100B5C009A600E4B0022DA600C4B4FF480421A6103
:100B6C000A4B00225A61094B00229A61074B002262
:100B7C00DA61064B00221A62044800F0D7FF0346E4
:100B8C00002B01D000F07EFB00BF80BD9C0000203C
:100B9C0000540040A086010080B58AB000AF786098
:100BAC0007F1140300221A605A609A60DA601A6125
:100BBC007B681B68174A934228D1174BDB69164A8E
:100BCC0043F00203D361144BDB6903F002033B6176
:100BDC003B694FF440737B611223BB610123FB61C2
:100BEC0003233B6204237B6207F1140319460B4871
:100BFC0000F0DCFD084B5B6A074A43F400135362B8
:100C0C00054B5B6A03F40013FB60FB6800BF2837DD
:100C1C00BD4680BD00540040003802400004024034
:100C2C0080B58AB002AF786039607B68FB613B6845
:100C3C001B7843F00C03DAB23B681A7080233B76C6
:100C4C003B681B7843F02003DBB27B7607F118017D
:100C5C000A2302226C4802F02CFE40F60D23BB82C4
:100C6C0007F114010A230222674802F022FE6423D2
:100C7C0005227C21F86901F0B5FB0346FB7407F1F2
:100C8C0013010A230122604802F013FE322000F007
:100C9C0087FC07F1180241F28833009302237C2170
:100CAC00F86901F07BF80346BB7407F112010A23C3
:100CBC000122554802F0FDFD322000F071FC07F1D5
:100CCC00180241F28833009302237C21F86901F069
:100CDC0065F8052000F064FC07F1180241F2883336
:100CEC00009302237C21F86901F058F83B68042238
:100CFC005A703B685B7843F00803DBB27B7607F1F4
:100D0C0018024FF47A73009302237C21F86901F0E6
:100D1C0045F801237B7607F118024FF47A730093A0
:100D2C0002237C21F86901F039F8022000F038FC2C
:100D3C003B6802229A703B689B7843F00403DBB259
:100D4C007B7607F118024FF47A73009302237C210F
:100D5C00F86901F023F800233B7400237B7407F13E
:100D6C0010024FF47A7300930223C421F86901F046
:100D7C0015F808233B74FF237B7407F110024FF422
:100D8C007A7300930223C421F86901F007F8012358
:100D9C003B7420237B7407F110024FF47A73009399
:100DAC000223C421F86900F0F9FF04233B73FF23ED
:100DBC007B7307F10C024FF47A7300930223C42166
:100DCC00F86900F0EBFF03233B73FF237B7307F100
:100DDC000C024FF47A7300930223C421F86900F0DB
:100DEC00DDFF02233B73FF237B7307F10C024FF4EF
:100DFC007A7300930223C421F86900F0CFFF00BF7F
:100E0C002037BD4680BD00BFF000002080B588B003
:100E1C0002AF786039607B683B6140233B730023F1
:100E2C007B6111E07B693A6813441B787B7307F193
:100E3C000C024FF47A73009302237C21386900F082
:100E4C00ADFF7B6901337B617B693A6813441B7886
:100E5C00002BE7D100BF1837BD4680BD80B586B0EA
:100E6C0002AF78600B46FB701346BB707B68FB606F
:100E7C00BB78002B04D1FB7863F07F03FB7003E09D
:100E8C00FB7863F03F03FB7080233B72FB787B7233
:100E9C0007F108024FF47A73009302237C21F8685F
:100EAC0000F07CFF00BF1037BD4680BD80B588B018
:100EBC0002AF0346FB710B46BB7113467B71184B9B
:100ECC007B6104233B74FB797B7407F110024FF4B4
:100EDC007A7300930223C421786900F05FFF032327
:100EEC003B73BB797B7307F10C024FF47A7300935D
:100EFC000223C421786900F051FF02233B727B79F5
:100F0C007B7207F108024FF47A7300930223C42119
:100F1C00786900F043FF00BF1837BD4680BD00BFA5
:100F2C009C000020F0B58FB002AF4FF00003FB62C5
:100F3C004FF00003BB6200F0C5FA00F055F9FFF763
:100F4C0095FDFFF7FBFD00F04FFA98499848FFF725
:100F5C0067FE002200219648FFF780FF95499448D0
:100F6C00FFF754FFFF2200210020FFF79FFF41F203
:100F7C00883000F015FB20233B7024237B708821E4
:100F8C003A464FF0FF3300930223894800F006FFE6
:100F9C00034687F8273097F82730002B05D03B46BF
:100FAC00854A07CA03C31A80DCE00A2000F0F8FA6D
:100FBC0000233B7000237B700023BB700023FB706D
:100FCC0000233B7100237B710023BB710023FB7159
:100FDC0000233B7288213A464FF0FF3300930623DF
:100FEC00734800F0D9FF034687F8273097F827306D
:100FFC00002B05D03B46714A07CA03C31A80B1E0E7
:10100C003B781B021AB27B781BB213431BB2BB8416
:10101C00BB8C1846FFF76AF9034669491846FFF777
:10102C0071FA034667491846FFF7B8F90346664953
:10103C001846FFF7A9F80346FB62FB781B021AB2AD
:10104C003B791BB213431BB27B847B8C1846FFF796
:10105C004DF903465A491846FFF754FA03465B49C3
:10106C001846FFF79BF90346BB625949B86AFFF76C
:10107C0095F90346BB625649F86AFFF78FF90346A8
:10108C00FB624FF00001F86AFFF726FB0346002BCA
:10109C0036D0FB6A83F00043FB62F86AFFF744FB2F
:1010AC0002464C4BA3FB0223DE08F86AFFF73CFB1D
:1010BC000246484BA3FB0213DC0823469B00234447
:1010CC005B00D41AB86AFFF72FFB0246414BA3FB17
:1010DC000223DD08B86AFFF727FB01463D4BA3FB53
:1010EC000123DA0813469B0013445B00CA1A3846E6
:1010FC000192009523463246374902F0F9FD31E062
:10110C00F86AFFF711FB0246324BA3FB0223DE0801
:10111C00F86AFFF709FB02462E4BA3FB0213DC080F
:10112C0023469B0023445B00D41AB86AFFF7FCFAF1
:10113C000246284BA3FB0223DD08B86AFFF7F4FA3A
:10114C000146244BA3FB0123DA0813469B001344EE
:10115C005B00CA1A384601920095234632461F4955
:10116C0002F0C6FD3B46184600F090F80022002124
:10117C000F48FFF773FE3B4619460D48FFF746FE36
:10118C00012200210A48FFF769FE15490848FFF7BC
:10119C003DFE002200210320FFF788FE202111488C
:1011AC0000F0AAFC642000F0FBF9E4E68C000020BF
:1011BC009C0000204845000858450008644500087C
:1011CC0000FF7F4700002F43000034420000C8425C
:1011DC0000002041CDCCCCCC704500088C450008DB
:1011EC00A44500080000024080B592B000AF07F1A2
:1011FC00140334220021184602F072FD3B460022F3
:10120C001A605A609A60DA601A611D4B1B6823F4ED
:10121C00C0531B4A43F40063136002237B61012318
:10122C003B6210237B620223BB630023FB634FF4FE
:10123C0000233B644FF400037B6407F1140318464E
:10124C0001F02AFD0346002B01D000F01BF80F2300
:10125C003B6003237B600023BB600023FB60002307
:10126C003B613B460121184602F046F80346002B31
:10127C0001D000F007F800BF4837BD4680BD00BF65
:10128C000070004080B400AF72B6FEE780B58AB043
:10129C0000AF786007F108037968184602F048FD42
:1012AC0007F108031846FEF763FF03469AB207F1ED
:1012BC0008014FF0FF33034802F0FBFA00BF283758
:1012CC00BD4680BDF000002080B584B000AF154B4A
:1012DC005B6A144A43F000435362124B5B6A03F09F
:1012EC000043FB60FB680F4B1B6A0E4A43F0010383
:1012FC0013620C4B1B6A03F00103BB60BB68094B08
:10130C005B6A084A43F080535362064B5B6A03F0F6
:10131C0080537B607B68072000F014FA00BF103705
:10132C00BD4680BD0038024080B400AFFEE780B4FB
:10133C0000AFFEE780B400AFFEE780B400AFFEE77D
:10134C0080B400AFFEE780B400AF00BFBD4680BCE8
:10135C00704780B400AF00BFBD4680BC704780B4FE
:10136C0000AF00BFBD4680BC704780B500AF00F039
:10137C00FBF800BF80BD000080B584B000AF786082
:10138C00114B1B68002B02D10F4B104A1A600E4BED
:10139C001B68FB600C4B1A687B6813446A469342CB
:1013AC0007D902F073FC02460C2313604FF0FF3395
:1013BC0006E0054B1A687B681344034A1360FB680C
:1013CC0018461037BD4680BD900000203801002023
:1013DC0080B400AF034B4FF000629A6000BFBD4673
:1013EC0080BC704700ED00E080B500AF114B124A95
:1013FC001A60104B4FF4E1325A600E4B00229A6087
:10140C000C4B0022DA600B4B00221A61094B0C22A8
:10141C005A61084B00229A61064B0022DA6105489A
:10142C0002F0FAF90346002B01D0FFF72BFF00BFA7
:10143C0080BD00BFF00000200044004080B58AB0A1
:10144C0000AF786007F1140300221A605A609A60AA
:10145C00DA601A617B681B68174A934227D1174BD5
:10146C005B6A164A43F400335362144B5B6A03F411
:10147C0000333B613B69114BDB69104A43F00103BC
:10148C00D3610E4BDB6903F00103FB60FB680C239B
:10149C007B610223BB610023FB6103233B620723B7
:1014AC007B6207F114031946054800F07FF900BF71
:1014BC002837BD4680BD00BF0044004000380240C4
:1014CC000000024080B582B000AF0023FB71032006
:1014DC0000F038F9002000F00DF80346002B02D084
:1014EC000123FB7101E0FFF7EFFEFB79184608378B
:1014FC00BD4680BD80B584B000AF78600023FB731F
:10150C00164B1B68002B22D0154B1A68134B1B680B
:10151C004FF47A71B1FBF3F3B2FBF3F3184600F01E
:10152C0038F90346002B0FD17B680F2B09D800220A
:10153C0079684FF0FF3000F010F90A4A7B681360AD
:10154C0007E00123FB7304E00123FB7301E001239B
:10155C00FB73FB7B18461037BD4680BD080000208E
:10156C00000000200400002080B400AF054B1A6876
:10157C00054B1B681344034A136000BFBD4680BC77
:10158C00704700BF300100200800002080B400AF7D
:10159C00024B1B681846BD4680BC704730010020CA
:1015AC0080B584B000AF7860FFF7F0FFB8607B685F
:1015BC00FB60FB68B3F1FF3F04D0094B1B68FA6872
:1015CC001344FB6000BFFFF7E1FF0246BB68D31A70
:1015DC00FA689A42F7D800BF1037BD4680BD00BFED
:1015EC000800002080B485B000AF78607B6803F001
:1015FC000703FB600C4BDB68BB60BA684FF6FF035C
:10160C001340BB60FB681A02BB68134343F0BF6313
:10161C0043F40033BB60044ABB68D36000BF14378B
:10162C00BD4680BC704700BF00ED00E080B400AF49
:10163C00044BDB681B0A03F007031846BD4680BC4D
:10164C00704700BF00ED00E080B483B000AF0346EC
:10165C003960FB7197F90730002B0ADB3B68DAB273
:10166C000C4997F907301201D2B20B4483F80023CE
:10167C000AE03B68DAB20849FB7903F00F03043B3C
:10168C001201D2B20B441A7600BF0C37BD4680BC97
:10169C00704700BF00E100E000ED00E080B489B0CD
:1016AC0000AFF860B9607A60FB6803F00703FB6178
:1016BC00FB69C3F10703042B28BF0423BB61FB693F
:1016CC000433062B02D9FB69033B00E000237B614A
:1016DC004FF0FF32BB6902FA03F3DA43BB681A40DE
:1016EC007B699A404FF0FF317B6901FA03F3D943D0
:1016FC007B680B40134318462437BD4680BC7047AB
:10170C0080B582B000AF78607B68013BB3F1807F1D
:10171C0001D301230FE00A4A7B68013B53600F2180
:10172C004FF0FF30FFF790FF054B00229A60044BFF
:10173C0007221A60002318460837BD4680BD00BF3B
:10174C0010E000E080B582B000AF78607868FFF7F9
:10175C0049FF00BF0837BD4680BD80B586B000AFDD
:10176C000346B9607A60FB7300237B61FFF75EFF71
:10177C0078617A68B9687869FFF790FF024697F943
:10178C000F3011461846FFF75FFF00BF1837BD46F4
:10179C0080BD80B582B000AF78607868FFF7B0FF8D
:1017AC00034618460837BD4680BD000080B487B09C
:1017BC0000AF7860396000237B610023FB6000235D
:1017CC003B6160E13B681A6801217B6901FA03F314
:1017DC001340FB60FB68002B00F052813B685B6898
:1017EC00012B0BD03B685B68022B07D03B685B6816
:1017FC00112B03D03B685B68122B30D17B689B6844
:10180C003B617B695B00032202FA03F3DB433A6919
:10181C0013403B613B68DA687B695B0002FA03F3B7
:10182C003A6913433B617B683A699A607B685B68F1
:10183C003B6101227B6902FA03F3DB433A691340F3
:10184C003B613B685B681B0903F001027B6902FA90
:10185C0003F33A6913433B617B683A695A607B68CE
:10186C00DB683B617B695B00032202FA03F3DB4319
:10187C003A6913403B613B689A687B695B0002FAEA
:10188C0003F33A6913433B617B683A69DA603B685E
:10189C005B68022B03D03B685B68122B23D17B69FE
:1018AC00DA087B68083253F822303B617B6903F01D
:1018BC0007039B000F2202FA03F3DB433A69134040
:1018CC003B613B681A697B6903F007039B0002FAD2
:1018DC0003F33A6913433B617B69DA087B6808328E
:1018EC00396943F822107B681B683B617B695B009C
:1018FC00032202FA03F3DB433A6913403B613B6872
:10190C005B6803F003027B695B0002FA03F33A693C
:10191C0013433B617B683A691A603B685B6803F070
:10192C008053002B00F0AC805D4B1B6A5C4A43F08B
:10193C00010313625A4B1B6A03F00103BB60BB68C3
:10194C00584A7B699B08023352F823303B617B6910
:10195C0003F003039B000F2202FA03F3DB433A6903
:10196C0013403B617B68504A934225D07B684F4AB9
:10197C0093421FD07B684E4A934219D07B684D4AE4
:10198C00934213D07B684C4A93420DD07B684B4AF0
:10199C00934207D07B684A4A934201D106230CE05C
:1019AC0007230AE0052308E0042306E0032304E0F0
:1019BC00022302E0012300E000237A6902F0030213
:1019CC00920093403A6913433B6136497B699B080B
:1019DC0002333A6941F823203A4B1B683B61FB68A0
:1019EC00DB433A6913403B613B685B6803F480332B
:1019FC00002B03D03A69FB6813433B61314A3B69C6
:101A0C001360304B5B683B61FB68DB433A69134006
:101A1C003B613B685B6803F40033002B03D03A69ED
:101A2C00FB6813433B61274A3B695360254B9B681A
:101A3C003B61FB68DB433A6913403B613B685B6885
:101A4C0003F48013002B03D03A69FB6813433B610A
:101A5C001C4A3B6993601B4BDB683B61FB68DB43B7
:101A6C003A6913403B613B685B6803F40013002B3D
:101A7C0003D03A69FB6813433B61124A3B69D3605C
:101A8C007B6901337B613B681A687B6922FA03F33B
:101A9C00002B7FF497AE00BF1C37BD4680BC70474F
:101AAC0000380240000001400000024000040240E7
:101ABC0000080240000C02400010024000140240DA
:101ACC00001802400004014080B483B000AF78607D
:101ADC000B467B8013467B707B78002B03D07A8877
:101AEC007B689A6103E07B881A047B689A6100BF6B
:101AFC000C37BD4680BC704780B485B000AF7860B1
:101B0C000B467B807B685B69FB607A88FB681340C3
:101B1C001A04FB68D9437B880B401A437B689A6193
:101B2C0000BF1437BD4680BC7047000080B584B040
:101B3C0000AF78607B68002B01D101231FE17B682B
:101B4C0093F83D30DBB2002B06D17B68002283F882
:101B5C003C207868FFF720F87B68242283F83D202E
:101B6C007B681B681A687B681B6822F001021A608C
:101B7C007B681B681A687B681B6842F400421A6019
:101B8C007B681B681A687B681B6822F400421A6029
:101B9C0001F0BAFDF8607B685B687B4A934207D81A
:101BAC00FB687A4A934294BF01230023DBB206E020
:101BBC00FB68774A934294BF01230023DBB2002BCE
:101BCC0001D00123DBE0FB68724AA2FB03239B0CD0
:101BDC00BB607B681B685B6823F03F017B681B68FC
:101BEC00BA680A435A607B681B681B6A23F03F0182
:101BFC007B685B68644A934202D8BB68013309E096
:101C0C00BB684FF4967202FB03F3634AA2FB0323F7
:101C1C009B0901337A6812680B4313627B681B685B
:101C2C00DB6923F44F4222F0FF027B685B68564964
:101C3C008B420DD8FB68591E7B685B685B00B1FB5F
:101C4C00F3F30133C3F30B03042B38BF04234FE02E
:101C5C007B689B68002B11D1FB68581E7B68596808
:101C6C000B465B000B44B0FBF3F30133C3F30B03E4
:101C7C00002B0CBF01230023DBB212E0FB68581EC3
:101C8C007B6859680B469B000B4499000B44B0FBD6
:101C9C00F3F30133C3F30B03002B0CBF012300231D
:101CAC00DBB2002B01D0012322E07B689B68002B68
:101CBC000ED1FB68581E7B6859680B465B000B44C1
:101CCC00B0FBF3F30133C3F30B0343F400430FE016
:101CDC00FB68581E7B6859680B469B000B449900A7
:101CEC000B44B0FBF3F30133C3F30B0343F4404356
:101CFC00796809681343CB617B681B681B6823F008
:101D0C00C0017B68DA697B681B6A1A437B681B68B5
:101D1C000A431A607B681B689B6823F4034323F017
:101D2C00FF037A6811697A68D26811437A6812687D
:101D3C000B4393607B681B68DB6823F0FF017B68B7
:101D4C005A697B689B691A437B681B680A43DA6093
:101D5C007B681B681A687B681B6842F001021A607A
:101D6C007B6800221A647B68202283F83D207B6804
:101D7C0000221A637B68002283F83E200023184659
:101D8C001037BD4680BD00BFA08601007F841E00B9
:101D9C00FF083D0083DE1B43D34D621080B588B035
:101DAC0002AFF8607A601A460B467B8113463B8182
:101DBC00FFF7ECFB7861FB6893F83D30DBB2202B2E
:101DCC0040F0E0807B690093192301227049F86888
:101DDC0000F086FD0346002B01D00223D3E0FB6804
:101DEC0093F83C30012B01D10223CCE0FB6801229B
:101DFC0083F83C20FB681B681B6803F00103012B74
:101E0C0007D0FB681B681A68FB681B6842F001026C
:101E1C001A60FB681B681A68FB681B6822F4006276
:101E2C001A60FB68212283F83D20FB68102283F89E
:101E3C003E20FB6800221A64FB687A685A62FB68D1
:101E4C003A895A85FB685B8D9AB2FB681A85FB68E8
:101E5C00504ADA6279897B693A6AF86800F0F0FBDB
:101E6C000346002B01D001238DE000233B61FB686E
:101E7C001B685B693B61FB681B689B693B613B6949
:101E8C0066E07A69396AF86800F000FE0346002BB8
:101E9C000DD0FB681B6C042B07D1FB681B681A6800
:101EAC00FB681B6842F400721A6001236BE0FB684C
:101EBC005B6A1A78FB681B681A61FB685B6A5A1CC0
:101ECC00FB685A62FB685B8D9BB2013B9AB2FB6864
:101EDC005A85FB681B8D013B9AB2FB681A85FB681F
:101EEC001B685B6903F00403042B1BD1FB681B8D7F
:101EFC00002B17D0FB685B6A1A78FB681B681A61A9
:101F0C00FB685B6A5A1CFB685A62FB685B8D9BB270
:101F1C00013B9AB2FB685A85FB681B8D013B9AB258
:101F2C00FB681A857A69396AF86800F0F0FD034697
:101F3C00002B0DD0FB681B6C042B07D1FB681B68B6
:101F4C001A68FB681B6842F400721A6001231AE0DD
:101F5C00FB681B8D002B94D1FB681B681A68FB680F
:101F6C001B6842F400721A60FB68202283F83D2043
:101F7C00FB68002283F83E20FB68002283F83C209B
:101F8C00002300E0022318461837BD4680BD00BF71
:101F9C00020010000000FFFF80B58CB002AFF860AB
:101FAC007A601A460B467B8113463B81FFF7EEFAAB
:101FBC007862FB6893F83D30DBB2202B40F00B824B
:101FCC007B6A0093192301227C49F86800F088FC95
:101FDC000346002B01D00223FEE1FB6893F83C3052
:101FEC00012B01D10223F7E1FB68012283F83C208D
:101FFC00FB681B681B6803F00103012B07D0FB680F
:10200C001B681A68FB681B6842F001021A60FB68C7
:10201C001B681A68FB681B6822F400621A60FB6874
:10202C00222283F83D20FB68102283F83E20FB68B7
:10203C0000221A64FB687A685A62FB683A895A85EE
:10204C00FB685B8D9AB2FB681A85FB685C4ADA62A6
:10205C0079897B6A3A6BF86800F074FB0346002BB5
:10206C0001D00123B8E1FB681B8D002B13D1002399
:10207C003B62FB681B685B693B62FB681B689B6986
:10208C003B623B6AFB681B681A68FB681B6842F47E
:10209C0000721A608CE1FB681B8D012B1BD1FB6855
:1020AC001B681A68FB681B6822F480621A600023A4
:1020BC00FB61FB681B685B69FB61FB681B689B69C8
:1020CC00FB61FB69FB681B681A68FB681B6842F4C0
:1020DC0000721A606CE1FB681B8D022B1BD1FB6834
:1020EC001B681A68FB681B6822F480621A60FB6824
:1020FC001B681A68FB681B6842F400621A600023B4
:10210C00BB61FB681B685B69BB61FB681B689B69F7
:10211C00BB61BB694CE1FB681B681A68FB681B68F8
:10212C0042F480621A6000237B61FB681B685B6968
:10213C007B61FB681B689B697B617B6938E1FB6891
:10214C001B8D032B00F2F180FB681B8D012B23D11F
:10215C007A6A396BF86800F01BFD0346002B01D03E
:10216C00012339E1FB681B681A69FB685B6AD2B210
:10217C001A70FB685B6A5A1CFB685A62FB681B8D01
:10218C00013B9AB2FB681A85FB685B8D9BB2013BE5
:10219C009AB2FB685A850BE1FB681B8D022B4ED162
:1021AC007B6A00933B6B00220649F86800F098FBB1
:1021BC000346002B08D001230EE100BF02001000E3
:1021CC000000FFFF04000100FB681B681A68FB6835
:1021DC001B6842F400721A60FB681B681A69FB6882
:1021EC005B6AD2B21A70FB685B6A5A1CFB685A6253
:1021FC00FB681B8D013B9AB2FB681A85FB685B8DF3
:10220C009BB2013B9AB2FB685A85FB681B681A6942
:10221C00FB685B6AD2B21A70FB685B6A5A1CFB687B
:10222C005A62FB681B8D013B9AB2FB681A85FB68EE
:10223C005B8D9BB2013B9AB2FB685A85B8E07B6A16
:10224C0000933B6B00226649F86800F049FB03469B
:10225C00002B01D00123BFE0FB681B681A68FB68E8
:10226C001B6822F480621A60FB681B681A69FB68A1
:10227C005B6AD2B21A70FB685B6A5A1CFB685A62C2
:10228C00FB681B8D013B9AB2FB681A85FB685B8D62
:10229C009BB2013B9AB2FB685A857B6A00933B6BFD
:1022AC0000224F49F86800F01BFB0346002B01D0BD
:1022BC00012391E0FB681B681A68FB681B6842F4F9
:1022CC0000721A60FB681B681A69FB685B6AD2B201
:1022DC001A70FB685B6A5A1CFB685A62FB681B8DA0
:1022EC00013B9AB2FB681A85FB685B8D9BB2013B84
:1022FC009AB2FB685A85FB681B681A69FB685B6AB3
:10230C00D2B21A70FB685B6A5A1CFB685A62FB6893
:10231C001B8D013B9AB2FB681A85FB685B8D9BB2E7
:10232C00013B9AB2FB685A8542E07A6A396BF868CD
:10233C0000F02EFC0346002B01D001234CE0FB687F
:10234C001B681A69FB685B6AD2B21A70FB685B6A1D
:10235C005A1CFB685A62FB681B8D013B9AB2FB68E6
:10236C001A85FB685B8D9BB2013B9AB2FB685A8560
:10237C00FB681B685B6903F00403042B18D1FB6832
:10238C001B681A69FB685B6AD2B21A70FB685B6ADD
:10239C005A1CFB685A62FB681B8D013B9AB2FB68A6
:1023AC001A85FB685B8D9BB2013B9AB2FB685A8520
:1023BC00FB681B8D002B7FF4C2AEFB68202283F8D8
:1023CC003D20FB68002283F83E20FB68002283F846
:1023DC003C20002300E0022318462837BD4680BD70
:1023EC000400010080B58AB002AFF8607A603B60EF
:1023FC000B467B81FFF7CAF8F8610123BB61FB68D0
:10240C0093F83D30DBB2202B40F01181FB69009337
:10241C00192301228849F86800F062FA0346002B60
:10242C0001D0022304E1FB6893F83C30012B01D16D
:10243C000223FDE0FB68012283F83C20FB681B684B
:10244C001B6803F00103012B07D0FB681B681A689B
:10245C00FB681B6842F001021A60FB681B681A6873
:10246C00FB681B6822F400621A60FB68242283F864
:10247C003D20FB6800221A64FB68704ADA62FB6834
:10248C001B681A68FB681B6842F480721A60FB694F
:10249C0000933B6800224FF00111F86800F020FA1D
:1024AC000346002B0DD0FB681B681B6803F480737C
:1024BC00B3F5807F03D1FB684FF400721A640323D9
:1024CC00B6E07B89DBB21A46FB681B6802F0FE02A1
:1024DC001A61FFF75BF8F861FB681B685B6903F036
:1024EC000203022B0CBF01230023DBB2FB75FB683C
:1024FC001B685B6903F48063B3F5806F0CBF012329
:10250C000023DBB2BB7525E0FFF740F80246FB6900
:10251C00D31A3A689A4202D33B68002B03D1FB686A
:10252C00A02283F83D20FB681B685B6903F0020363
:10253C00022B0CBF01230023DBB2FB75FB681B686D
:10254C005B6903F48063B3F5806F0CBF0123002338
:10255C00DBB2BB75FB6893F83D30DBB2A02B05D02A
:10256C00FB7D002B02D1BB7D002BCDD0FB68202244
:10257C0083F83D20FB681B685B6903F00203022BA8
:10258C0029D1FB681B681A68FB681B6842F400724F
:10259C001A6000233B61FB681B685B693B61FB684D
:1025AC001B689B693B613B69FB6900931923012202
:1025BC002149F86800F094F90346002B01D001235F
:1025CC0036E0FB68202283F83D20FB68002283F86C
:1025DC003C2000232CE0FB681B681A68FB681B6816
:1025EC0042F400721A60FB681B686FF480625A61D7
:1025FC00FB690093192301220F49F86800F070F968
:10260C000346002B01D0012312E0BB690133BB61EF
:10261C00BA697B689A42FFF432AFFB68202283F8D8
:10262C003D20FB68002283F83C20012300E00223BC
:10263C0018462037BD4680BD020010000000FFFF89
:10264C0080B588B002AFF8607A603B600B467B8146
:10265C00FB68DB6A7B617B69082B06D07B69012BED
:10266C0003D07B6913F5803F08D1FB681B681A689F
:10267C00FB681B6842F480721A600BE0FB681B6BF2
:10268C00122B07D1FB681B681A68FB681B6842F4A5
:10269C0080721A603B6800937B6800224FF0011136
:1026AC00F86800F01DF90346002B0DD0FB681B6881
:1026BC001B6803F48073B3F5807F03D1FB684FF480
:1026CC0000721A64032335E0FB681B69B3F5804F75
:1026DC0008D17B89DBB21A46FB681B6802F0FE024C
:1026EC001A611BE07B89DB11DBB203F00603DBB262
:1026FC0063F00F03DAB2FB681B681A613B687A68F7
:10270C000E49F86800F043F90346002B01D0012371
:10271C0010E07B89DAB2FB681B681A613B687A6847
:10272C000749F86800F033F90346002B01D0012368
:10273C0000E0002318461837BD4680BD0800010094
:10274C000200010080B588B002AFF8607A603B608F
:10275C000B467B81FB68DB6A7B61FB681B681A6834
:10276C00FB681B6842F480621A607B69082B06D0F8
:10277C007B69012B03D07B6913F5803F08D1FB6883
:10278C001B681A68FB681B6842F480721A600BE0C5
:10279C00FB681B6B112B07D1FB681B681A68FB6865
:1027AC001B6842F480721A603B6800937B680022BD
:1027BC004FF00111F86800F093F80346002B0DD090
:1027CC00FB681B681B6803F48073B3F5807F03D12F
:1027DC00FB684FF400721A64032379E0FB681B69F1
:1027EC00B3F5804F08D17B89DBB243F00103DAB239
:1027FC00FB681B681A615FE07B89DB11DBB203F0BD
:10280C000603DBB263F00F03DAB2FB681B681A61D4
:10281C003B687A683049F86800F0B9F80346002B39
:10282C0001D0012354E07B89DAB2FB681B681A6182
:10283C003B687A682949F86800F0A9F80346002B30
:10284C0001D0012344E000233B61FB681B685B69FA
:10285C003B61FB681B689B693B613B69FB681B68C0
:10286C001A68FB681B6842F480721A603B6800931C
:10287C007B6800224FF00111F86800F031F8034634
:10288C00002B0DD0FB681B681B6803F48073B3F539
:10289C00807F03D1FB684FF400721A64032317E0A6
:1028AC007B89DB11DBB203F00603DBB263F00E03B2
:1028BC00DAB2FB681B681A613B687A680749F868EA
:1028CC0000F065F80346002B01D0012300E0002343
:1028DC0018461837BD4680BD0800010002000100F3
:1028EC0080B584B000AFF860B9603B601346FB71F3
:1028FC0025E03B68B3F1FF3F21D0FEF747FE0246CF
:10290C00BB69D31A3A689A4202D33B68002B16D1A2
:10291C00FB6800221A63FB68202283F83D20FB68C9
:10292C00002283F83E20FB681B6C43F02002FB68FE
:10293C001A64FB68002283F83C20012323E0BB6867
:10294C001B0CDBB2012B0DD1FB681B685B69DA43F6
:10295C00BB6813409BB2002B0CBF01230023DBB2DE
:10296C001A460CE0FB681B689B69DA43BB68134092
:10297C009BB2002B0CBF01230023DBB21A46FB7960
:10298C009A42B6D0002318461037BD4680BD80B59C
:10299C0084B000AFF860B9607A603B6051E0FB68CE
:1029AC001B685B6903F48063B3F5806F23D1FB680C
:1029BC001B681A68FB681B6842F400721A60FB689B
:1029CC001B686FF480625A61FB6800221A63FB6813
:1029DC00202283F83D20FB68002283F83E20FB6810
:1029EC001B6C43F00402FB681A64FB68002283F83A
:1029FC003C20012346E07B68B3F1FF3F21D0FEF77A
:102A0C00C5FD02463B68D31A7A689A4202D37B68AA
:102A1C00002B16D1FB6800221A63FB68202283F876
:102A2C003D20FB68002283F83E20FB681B6C43F0C2
:102A3C002002FB681A64FB68002283F83C20012307
:102A4C0020E0BB681B0CDBB2012B0CD1FB681B68B4
:102A5C005B69DA43BB6813409BB2002B14BF0123A4
:102A6C000023DBB20BE0FB681B689B69DA43BB6895
:102A7C0013409BB2002B14BF01230023DBB2002BAD
:102A8C008DD1002318461037BD4680BD80B584B06B
:102A9C0000AFF860B9607A602DE0F86800F0CEF80D
:102AAC000346002B01D001232DE0BB68B3F1FF3F9F
:102ABC0021D0FEF76BFD02467B68D31ABA689A42A6
:102ACC0002D3BB68002B16D1FB6800221A63FB688B
:102ADC00202283F83D20FB68002283F83E20FB680F
:102AEC001B6C43F02002FB681A64FB68002283F81D
:102AFC003C20012307E0FB681B685B6903F0800343
:102B0C00802BCAD1002318461037BD4680BD80B536
:102B1C0084B000AFF860B9607A602DE0F86800F01E
:102B2C008DF80346002B01D001232DE0BB68B3F1D7
:102B3C00FF3F21D0FEF72AFD02467B68D31ABA6804
:102B4C009A4202D3BB68002B16D1FB6800221A6391
:102B5C00FB68202283F83D20FB68002283F83E208E
:102B6C00FB681B6C43F02002FB681A64FB680022B4
:102B7C0083F83C20012307E0FB681B685B6903F0CA
:102B8C000403042BCAD1002318461037BD4680BD60
:102B9C0080B584B000AFF860B9607A6042E0FB6841
:102BAC001B685B6903F01003102B19D1FB681B68C1
:102BBC006FF010025A61FB6800221A63FB68202236
:102BCC0083F83D20FB68002283F83E20FB681A6CDA
:102BDC00FB681A64FB68002283F83C20012329E07F
:102BEC00FEF7D4FC02467B68D31ABA689A4202D329
:102BFC00BB68002B16D1FB6800221A63FB682022ED
:102C0C0083F83D20FB68002283F83E20FB681B6C98
:102C1C0043F02002FB681A64FB68002283F83C2016
:102C2C00012307E0FB681B685B6903F04003402B42
:102C3C00B5D1002318461037BD4680BD80B483B093
:102C4C0000AF78607B681B685B6903F48063B3F545
:102C5C00806F1BD17B681B686FF480625A617B6844
:102C6C0000221A637B68202283F83D207B680022B7
:102C7C0083F83E207B681B6C43F004027B681A646B
:102C8C007B68002283F83C20012300E000231846D7
:102C9C000C37BD4680BC704780B588B000AF7860FB
:102CAC007B68002B01D101231DE3944B9B6803F03F
:102CBC000C03BB61914B9B6803F480337B617B6895
:102CCC001B6803F00103002B7BD0BB69082B06D0DB
:102CDC00BB690C2B0FD17B69B3F5803F0BD1874BB4
:102CEC001B6803F40033002B6AD07B685B68002BF5
:102CFC0066D10123F7E27B685B68012B06D17F4B21
:102D0C001B687E4A43F4803313602DE07B685B685C
:102D1C00002B0CD1794B1B68784A23F48033136059
:102D2C00764B1B68754A23F4802313601CE07B6888
:102D3C005B68052B0CD1714B1B68704A43F48023E4
:102D4C0013606E4B1B686D4A43F4803313600BE0C9
:102D5C006A4B1B68694A23F480331360674B1B680A
:102D6C00664A23F4802313607B685B68002B13D0C6
:102D7C00FEF70CFC386108E0FEF708FC02463B69E4
:102D8C00D31A642B01D90323ADE25C4B1B6803F40B
:102D9C000033002BF0D014E0FEF7F8FB386108E0AC
:102DAC00FEF7F4FB02463B69D31A642B01D90323CB
:102DBC0099E2524B1B6803F40033002BF0D100E076
:102DCC0000BF7B681B6803F00203002B5AD0BB6961
:102DDC00042B05D0BB690C2B19D17B69002B16D1A8
:102DEC00464B1B6803F00203002B05D07B68DB68A5
:102DFC00012B01D0012376E2404B5B6823F4F8529F
:102E0C007B681B691B023D4913434B603AE07B68AE
:102E1C00DB68002B20D03A4B01221A60FEF7B6FB80
:102E2C00386108E0FEF7B2FB02463B69D31A022B6D
:102E3C0001D9032357E2314B1B6803F00203002B2B
:102E4C00F0D02E4B5B6823F4F8527B681B691B0295
:102E5C002A4913434B6015E0294B00221A60FEF7F8
:102E6C0095FB386108E0FEF791FB02463B69D31AEB
:102E7C00022B01D9032336E2204B1B6803F002031B
:102E8C00002BF0D17B681B6803F01003002B00F0C3
:102E9C00B880BB69002B70D1184B1B6803F400730E
:102EAC00002B05D07B689B69002B01D101231AE212
:102EBC007B681A6A114B5B6803F460439A4221D910
:102ECC007B681B6A184600F047FC0346002B01D0B8
:102EDC00012308E2094B5B6823F460427B681B6AA0
:102EEC00064913434B60054B5B6823F07F427B68BC
:102EFC00DB691B06014913434B6020E0003802409C
:102F0C0000004742A44B5B6823F460427B681B6A59
:102F1C00A14913434B60A04B5B6823F07F427B6855
:102F2C00DB691B069C4913434B607B681B6A184684
:102F3C0000F012FC0346002B01D00123D3E17B6887
:102F4C001B6A5B0B01334FF4004202FA03F3924A03
:102F5C009268120902F00F0290498A5CD340904AA1
:102F6C001360904B1B681846FEF7C4FA0346FB73BC
:102F7C00FB7B002B45D0FB7BB5E17B689B69002B71
:102F8C0029D0894B01221A60FEF700FB386108E05A
:102F9C00FEF7FCFA02463B69D31A022B01D9032334
:102FAC00A1E17D4B1B6803F40073002BF0D07A4B2E
:102FBC005B6823F460427B681B6A774913434B6060
:102FCC00754B5B6823F07F427B68DB691B0672499B
:102FDC0013434B6015E0744B00221A60FEF7D6FACF
:102FEC00386108E0FEF7D2FA02463B69D31A022B8D
:102FFC0001D9032377E1684B1B6803F40073002BA2
:10300C00F0D17B681B6803F00803002B30D07B6881
:10301C005B69002B16D0654B01221A60FEF7B6FADD
:10302C00386108E0FEF7B2FA02463B69D31A022B6C
:10303C0001D9032357E1584B5B6B03F00203002BC0
:10304C00F0D015E0594B00221A60FEF79FFA386158
:10305C0008E0FEF79BFA02463B69D31A022B01D912
:10306C00032340E14C4B5B6B03F00203002BF0D1CC
:10307C007B681B6803F00403002B00F0B580002371
:10308C00FB77454B5B6A03F08053002B0DD1424B11
:10309C005B6A414A43F0805353623F4B5B6A03F0D7
:1030AC008053BB60BB680123FB77414B1B6803F467
:1030BC008073002B18D13E4B1B683D4A43F4807340
:1030CC001360FEF763FA386108E0FEF75FFA024618
:1030DC003B69D31A642B01D9032304E1344B1B68DD
:1030EC0003F48073002BF0D07B689B68012B06D116
:1030FC00294B5B6B284A43F4807353632DE07B6848
:10310C009B68002B0CD1244B5B6B234A23F48073FC
:10311C005363214B5B6B204A23F4806353631CE0A5
:10312C007B689B68052B0CD11B4B5B6B1A4A43F4D9
:10313C0080635363184B5B6B174A43F48073536380
:10314C000BE0154B5B6B144A23F480735363124BE7
:10315C005B6B114A23F4806353637B689B68002B81
:10316C0015D0FEF713FA38610AE0FEF70FFA0246A3
:10317C003B69D31A41F28832934201D90323B2E05E
:10318C00054B5B6B03F40073002BEED023E0FEF7D2
:10319C00FDF9386119E000BF00380240C045000855
:1031AC000000002004000020200047428006474217
:1031BC0000700040FEF7EAF902463B69D31A41F26F
:1031CC008832934201D903238DE0494B5B6B03F4A6
:1031DC000073002BEED1FB7F012B05D1444B5B6AB6
:1031EC00434A23F0805353627B685B6A002B79D08F
:1031FC00BB690C2B56D07B685B6A022B3BD13D4BD9
:10320C0000221A60FEF7C2F9386108E0FEF7BEF939
:10321C0002463B69D31A022B01D9032363E0344BDA
:10322C001B6803F00073002BF0D1314B9B6823F427
:10323C007D027B68996A7B68DB6A19437B681B6B30
:10324C000B432B4913438B602A4B01221A60FEF768
:10325C009DF9386108E0FEF799F902463B69D31AEB
:10326C00022B01D903233EE0214B1B6803F00073B2
:10327C00002BF0D036E01F4B00221A60FEF786F9C7
:10328C00386108E0FEF782F902463B69D31A022B3B
:10329C0001D9032327E0164B1B6803F00073002BA6
:1032AC00F0D11FE07B685B6A012B01D101231AE08E
:1032BC000F4B9B687B617B6903F480327B689B6A54
:1032CC009A420DD17B6903F470127B68DB6A9A42D7
:1032DC0006D17B6903F440027B681B6B9A4201D0D8
:1032EC00012300E0002318462037BD4680BD00BFF7
:1032FC00003802406000474280B584B000AF78606F
:10330C0039607B68002B01D101231AE18F4B1B68BC
:10331C0003F001033A689A4219D93B68012B05D195
:10332C008A4B1B68894A43F004031360874B1B6864
:10333C0023F0010285493B6813430B60834B1B68E8
:10334C0003F001033A689A4201D00123F9E07B684B
:10335C001B6803F00203002B08D07D4B9B6823F005
:10336C00F0027B689B687A4913438B607B681B680F
:10337C0003F00103002B00F08E807B685B68022B4E
:10338C0007D1734B1B6803F40033002B21D10123AD
:10339C00D7E07B685B68032B07D16D4B1B6803F090
:1033AC000073002B15D10123CBE07B685B68012BEC
:1033BC0007D1674B1B6803F00203002B09D10123D3
:1033CC00BFE0634B1B6803F40073002B01D1012396
:1033DC00B7E05F4B9B6823F003027B685B685C493A
:1033EC0013438B60FEF7D2F8F8607B685B68022BA6
:1033FC0012D10AE0FEF7CAF80246FB68D31A41F272
:10340C008832934201D903239BE0514B9B6803F014
:10341C000C03082BEED13EE07B685B68032B12D1CA
:10342C000AE0FEF7B3F80246FB68D31A41F2883281
:10343C00934201D9032384E0454B9B6803F00C03B2
:10344C000C2BEED127E07B685B68012B1DD10AE0C9
:10345C00FEF79CF80246FB68D31A41F2883293427D
:10346C0001D903236DE03A4B9B6803F00C03042B4A
:10347C00EED110E0FEF78AF80246FB68D31A41F24F
:10348C008832934201D903235BE0314B9B6803F0F4
:10349C000C03002BEED12D4B1B6803F001033A6893
:1034AC009A4219D23B68012B05D1284B1B68274A3D
:1034BC0043F004031360254B1B6823F001022349DE
:1034CC003B6813430B60214B1B6803F001033A6804
:1034DC009A4201D0012334E07B681B6803F004039B
:1034EC00002B08D01A4B9B6823F4E0627B68DB68E6
:1034FC00174913438B607B681B6803F00803002B90
:10350C0009D0134B9B6823F460527B681B69DB006A
:10351C000F4913438B6000F023F801460C4B9B685A
:10352C001B0903F00F030B4AD35C21FA03F30A4A7D
:10353C0013600A4B1B681846FDF7DCFF0346FB7251
:10354C00FB7A18461037BD4680BD00BF003C0240D8
:10355C0000380240C0450008000000200400002094
:10356C00F0B587B000AF5F4B9B68FB60FB6803F066
:10357C000C03082B07D00C2B08D0042B40F09F8099
:10358C00594B3B61A9E0594B3B61A6E0FB689B0C96
:10359C0003F00F03564AD35CBB60FB689B0D03F032
:1035AC00030301337B604F4B9B6803F48033002B88
:1035BC0041D0BB681D464FF00006294632464FF0FD
:1035CC0000034FF00004540144EAD1644B01194646
:1035DC002246491B62EB06024FF000034FF0000439
:1035EC00940144EA91648B015B1A64EB02044FF082
:1035FC0000014FF00002E20042EA5372D9000B4680
:10360C0014465B1944EB06044FF000014FF0000226
:10361C00620242EAD35259020B461446184621461E
:10362C007B684FF000041A462346FDF79DF80346CD
:10363C000C467B6140E0BB681D464FF000062946F6
:10364C0032464FF000034FF00004540144EAD164B9
:10365C004B0119462246491B62EB06024FF0000350
:10366C004FF00004940144EA91648B015B1A64EB03
:10367C0002044FF000014FF00002E20042EA5372E4
:10368C00D9000B4614465B1944EB06044FF00001BD
:10369C004FF00002A20242EA935299020B461446E2
:1036AC00184621467B684FF000041A462346FDF766
:1036BC005BF803460C467B617B693B610DE0094B73
:1036CC005B685B0B03F007033B603B6801334FF413
:1036DC00004202FA03F33B6100BF3B6918461C37FA
:1036EC00BD46F0BD003802400024F40000127A0000
:1036FC00B445000880B400AF024B1B681846BD46A9
:10370C0080BC70470000002080B500AFFFF7F2FFCF
:10371C000146054B9B681B0A03F00703034AD35C65
:10372C0021FA03F3184680BD00380240D04500084A
:10373C0080B500AFFFF7DEFF0146054B9B68DB0A47
:10374C0003F00703034AD35C21FA03F3184680BD48
:10375C0000380240D045000880B487B000AF7860D4
:10376C0000233B61294B9B6803F0F003002B2CD109
:10377C00264B5B6A03F08053002B05D0244B1B684F
:10378C0003F4C0537B6116E0204B5B6A1F4A43F085
:10379C00805353621D4B5B6A03F08053FB60FB68E4
:1037AC001B4B1B6803F4C0537B61184B5B6A174AB5
:1037BC0023F0805353627B69B3F5C05F05D17B68FE
:1037CC00B3F5404F01D101233B613B69012B05D17E
:1037DC00104B1B680F4A43F0040313600D4B1B681E
:1037EC0023F001020B493B6913430B60094B1B6827
:1037FC0003F001033A699A4201D0012300E000234F
:10380C0018461C37BD4680BC704700BF00380240CC
:10381C0000700040003C024080B582B000AF786080
:10382C007B68002B01D101233FE07B6893F8393092
:10383C00DBB2002B06D17B68002283F83820786835
:10384C00FDF7FCFD7B68242283F839207B681B681C
:10385C00DA687B681B6822F40052DA60786800F042
:10386C000BF97B681B681A697B681B6822F4904211
:10387C001A617B681B685A697B681B6822F02A02F4
:10388C005A617B681B68DA687B681B6842F40052DB
:10389C00DA607B680022DA637B68202283F83920A7
:1038AC007B68202283F83A20002318460837BD464F
:1038BC0080BD80B588B002AFF860B9603B6013463C
:1038CC00FB8000237B61FB6893F83930DBB2202B43
:1038DC0040F08380BB68002B02D0FB88002B01D109
:1038EC0001237BE0FB6893F83830012B01D10223D4
:1038FC0074E0FB68012283F83820FB680022DA634D
:10390C00FB68212283F83920FDF740FE7861FB68C3
:10391C00FA889A84FB68FA88DA84FB68002283F8B8
:10392C00382042E0FB68DB8C9BB2013B9AB2FB680F
:10393C00DA84FB689B68B3F5805F22D13B68009307
:10394C007B6900228021F86800F04CF80346002BBC
:10395C0001D0032342E0BB683B613B691B881A46DC
:10396C00FB681B68C2F308025A60FB681B69002BDA
:10397C0003D1BB680233BB6017E0BB680133BB608B
:10398C0013E03B6800937B6900228021F86800F00B
:10399C0029F80346002B01D003231FE0BB685A1CF7
:1039AC00BA601A78FB681B685A60FB68DB8C9BB2A8
:1039BC00002BB7D13B6800937B6900224021F8684B
:1039CC0000F010F80346002B01D0032306E0FB683F
:1039DC00202283F83920002300E0022318461837F0
:1039EC00BD4680BD80B584B000AFF860B9603B6067
:1039FC001346FB712CE0BB69B3F1FF3F28D0BB69C8
:103A0C00002B07D0FDF7C2FD02463B68D31ABA69FA
:103A1C009A421DD2FB681B68DA68FB681B6822F4AB
:103A2C00D072DA60FB681B685A69FB681B6822F06D
:103A3C0001025A61FB68202283F83920FB6820229E
:103A4C0083F83A20FB68002283F8382003230FE028
:103A5C00FB681B681A68BB681340BA689A420CBFB3
:103A6C0001230023DBB21A46FB799A42C3D0002310
:103A7C0018461037BD4680BD80B584B000AF786065
:103A8C007B681B681B6923F440517B68DA687B6890
:103A9C001B680A431A617B689A687B681B691A4326
:103AAC007B685B691A437B68DB691343BB607B688B
:103ABC001B68DB6823F4164323F00C037A68126846
:103ACC00B9680B43D3607B681B685B6923F4407156
:103ADC007B689A697B681B680A435A617B681B6820
:103AEC00554A934203D1FFF723FEF86002E0FFF73B
:103AFC000BFEF8607B68DB69B3F5004F4CD1FA68BC
:103B0C0013469B0013449A001A447B685B685B0065
:103B1C00B2FBF3F3494AA2FB03235B091901FA68D0
:103B2C0013469B0013449A001A447B685B685B0045
:103B3C00B2FBF3F2414BA3FB02035B09642000FBD5
:103B4C0003F3D31ADB0032333C4AA2FB03235B0999
:103B5C005B0003F4F8731944FA6813469B00134492
:103B6C009A001A447B685B685B00B2FBF3F2334B40
:103B7C00A3FB02035B09642000FB03F3D31ADB00F5
:103B8C0032332E4AA2FB03235B0903F007027B6846
:103B9C001B680A449A604AE0FA6813469B00134477
:103BAC009A001A447B685B689B00B2FBF3F3234AD0
:103BBC00A2FB03235B091901FA6813469B0013440B
:103BCC009A001A447B685B689B00B2FBF3F21B4BB8
:103BDC00A3FB02035B09642000FB03F3D31A1B0154
:103BEC003233164AA2FB03235B0903F0F00319449A
:103BFC00FA6813469B0013449A001A447B685B686E
:103C0C009B00B2FBF3F20D4BA3FB02035B09642098
:103C1C0000FB03F3D31A1B013233084AA2FB032324
:103C2C005B0903F00F027B681B680A449A6000BFB3
:103C3C001037BD4680BD00BF003801401F85EB51D9
:103C4C00002103E00B4B5B58435004310A480B4BEB
:103C5C0042189A42F6D30A4A02E0002342F8043B87
:103C6C00084B9A42F9D3FDF7B3FB00F015F8FDF7BA
:103C7C0059F970471C460008000000207000002015
:103C8C007000002038010020FEE70000014B18688E
:103C9C00704700BF0C00002070B500250C4E0D4C79
:103CAC00A41BA410A54209D100F03CFC00250A4E2F
:103CBC000A4CA41BA410A54205D170BD56F82530A2
:103CCC0098470135EEE756F8253098470135F2E76D
:103CDC00144600081446000814460008184600084C
:103CEC0003460244934200D1704703F8011BF9E7E5
:103CFC000EB46FF0004100B59CB01DAB0290069065
:103D0C00079104910848094953F8042B0591006860
:103D1C0002A9019300F06EF80022029B1A701CB0ED
:103D2C005DF804EB03B070470C0000200802FFFFA5
:103D3C00034611F8012B03F8012B002AF9D1704727
:103D4C002DE9F0478E6882469E420C469046994675
:103D5C0037D88A8912F4906F31D00223256809690B
:103D6C006F1A656905EB450595FBF3F509F1010340
:103D7C003B449D4238BF1D46530530D5294600F0C3
:103D8C0037FB064650B90C234FF0FF30CAF8003011
:103D9C00A38943F04003A381BDE8F0873A4621692B
:103DAC0000F0B6FAA38923F4906343F08003A38157
:103DBC0026613E4426604E466561ED1BA5604E456E
:103DCC0000D94E4632464146206800F0ACFAA36852
:103DDC0000209B1BA36023681E442660DCE72A4658
:103DEC0000F060FB06460028E2D12169504600F045
:103DFC00B3FAC8E72DE9F04F1D468B899DB01F061D
:103E0C0080460C4616460FD50B696BB9402100F065
:103E1C00EFFA2060206128B90C23C8F800304FF06D
:103E2C00FF30C8E0402363610023099320238DF801
:103E3C00293030234FF0010B8DF82A30039537468B
:103E4C003D4615F8013B0BB1252B3ED1B7EB060ACD
:103E5C000BD05346324621464046FFF771FF0130E6
:103E6C0000F0A480099B534409933B78002B00F08D
:103E7C009D8000234FF0FF32CDE905230493079377
:103E8C008DF853301A932F46052217F8011B504812
:103E9C0000F030FA049BD0B9D90644BF20228DF82B
:103EAC0053201A0744BF2B228DF853202A782A2A34
:103EBC0015D02F4600200A25079A394611F8013BE8
:103ECC00303B092B4DD9B8B10FE02F46B8E7404A2B
:103EDC003D46801A0BFA00F018430490D3E7039A7E
:103EEC00111D12680391002A01DB079204E0524273
:103EFC0043F00203079204933B782E2B0CD17B7872
:103F0C002A2B33D1039B02371A1D1B680392002BFB
:103F1C00B8BF4FF0FF3305932E4D03223978284656
:103F2C0000F0E8F938B14023401B03FA00F0049B81
:103F3C000137034304933978062227487E1C8DF8F9
:103F4C00281000F0D7F9002838D0244B13BB039B62
:103F5C00073323F0070308330393099B4B4409935E
:103F6C006DE705FB023201200F46A6E700230A2568
:103F7C00194601370593384610F8012B303A092AB7
:103F8C0003D9002BC8D00591C6E705FB01210123FD
:103F9C000746F0E703AB00932246114B04A94046B9
:103FAC00AFF30080B0F1FF3F8146D6D1A3895B0609
:103FBC003FF535AF09981DB0BDE8F08F03AB00930A
:103FCC002246074B04A9404600F082F8EAE700BFFE
:103FDC00D8450008DE450008E24500080000000056
:103FEC004D3D00082DE9F04791461F468A680B6944
:103FFC0006469342B8BF1346C9F8003091F84320E7
:10400C000C46DDF8208012B10133C9F8003023686A
:10401C00990642BFD9F800300233C9F80030256840
:10402C0015F0060507D104F1190AE368D9F8002048
:10403C009B1AAB4229DC94F843302268003318BF3A
:10404C00012392062ED404F1430239463046C04770
:10405C00013021D02368E56803F00603042B18BF58
:10406C000025D9F800204FF0000908BFAD1AA3684D
:10407C00226908BF25EAE5759342C4BF9B1AED1867
:10408C001A344D451AD1002008E001235246394616
:10409C003046C047013003D14FF0FF30BDE8F08708
:1040AC000135C2E73020E11881F843005A1C94F81E
:1040BC0045102244023382F84310C4E70123224600
:1040CC0039463046C0470130E6D009F10109D8E73E
:1040DC002DE9F04301F1430C0C46097E85B06E29A5
:1040EC001746064698460C9A00F0B38022D86329EE
:1040FC0036D00AD8002900F0B980582900F0838006
:10410C0004F1420584F8421032E0642901D0692997
:10411C00F6D120681368050603F104012AD51B6843
:10412C001160002B03DA2D225B4284F843206F4888
:10413C000A2239E0732900F09D8008D86F2920D01D
:10414C007029DDD1236843F02003236003E0752937
:10415C0017D07829D4D17823654884F8453055E0B8
:10416C00136804F14205191D1B68116084F8423074
:10417C0001238CE01B6810F0400F116018BF1BB2BC
:10418C00CFE713682568181D1060280601D51B6839
:10419C0002E06806FBD51B886F2914BF0A2208228F
:1041AC005248002184F843106568002DA560C0F2C8
:1041BC009580216821F004012160002B3DD1002D58
:1041CC0040F08E806546082A0BD12368DB0708D5A2
:1041DC00236962689A42DEBF302305F8013C05F181
:1041EC00FF35ACEB05032361CDF800803B4603AAF9
:1041FC0021463046FFF7F6FE01304DD14FF0FF302F
:10420C0005B0BDE8F083394884F84510136821687F
:10421C001D1D1B6815600A060BD5CA0744BF41F06B
:10422C00200121601BB9226822F02002226010229A
:10423C00B7E74D0648BF9BB2EFE76546B3FBF2F11B
:10424C0002FB1133C35C05F8013D0B460029F5D187
:10425C00B9E713682568181D6169106028061B688A
:10426C0001D5196002E06A06FBD51980002365466A
:10427C002361B9E71368191D11601D68626800217C
:10428C00284600F037F808B1401B60606368236172
:10429C00002384F84330A7E723692A463946304681
:1042AC00C0470130AAD023689B0713D4E068039B56
:1042BC009842B8BF1846A3E701234A463946304610
:1042CC00C04701309AD00135E368039A9B1AAB4280
:1042DC00F2DCEBE7002504F11909F5E7002BACD172
:1042EC00037804F1420584F842306CE7E945000894
:1042FC00FA45000810B5C9B202449042034601D1F8
:10430C00002303E01C7801308C42F6D1184610BD16
:10431C0010B5431E0A44914200D110BD11F8014B57
:10432C0003F8014FF7E7884210B501EB020307D8F9
:10433C00421E99420AD011F8014B02F8014FF8E7DE
:10434C008342F5D98118D21AD34200D110BD13F88B
:10435C00014D01F8014DF7E738B50546002943D06A
:10436C0051F8043C0C1F002BB8BFE41800F0D0F837
:10437C001E4A1368104633B9636014602846BDE8C2
:10438C00384000F0C6B8A3420BD92168621893429A
:10439C0001BF1A685B685218226063600460EDE725
:1043AC0013465A680AB1A242FAD919685818A042A1
:1043BC000BD120680144581882421960DED1106874
:1043CC005268014419605A60D8E702D90C232B605B
:1043DC00D4E7206821188A4201BF11685268091875
:1043EC00216062605C60C9E738BD00BF94000020AA
:1043FC0070B5CD1C25F0030508350C2D38BF0C25E8
:10440C00002D064601DBA94203D90C2333600020A2
:10441C0070BD00F07DF8214A1468214691B9204CFA
:10442C0023681BB9304600F063F8206029463046FB
:10443C0000F05EF8431C24D10C233046336000F0AE
:10444C0068F8E4E70B685B1B18D40B2B0FD90B60D7
:10445C00CC18CD50304600F05CF804F10B00231D55
:10446C0020F00700C31AD3D05A42E250D0E74B6871
:10447C008C4216BF636013600C46EBE70C46496830
:10448C00CCE7C41C24F00304A04205D0211A30460A
:10449C0000F02EF80130CFD02560DBE7940000202F
:1044AC0098000020F8B5074614460E4621B9BDE821
:1044BC00F8401146FFF79CBF22B9FFF74DFF254688
:1044CC002846F8BD00F026F8A0420FD22146384607
:1044DC00FFF78EFF05460028F2D031462246FFF743
:1044EC0017FF31463846FFF737FFE9E73546E7E770
:1044FC0038B50023054C054608462360FCF73CFF05
:10450C00431C02D1236803B12B6038BD3401002059
:10451C007047704751F8043C181F002BBCBF0B5858
:10452C00C0187047F8B500BFF8BC08BC9E46704771
:0C453C00F8B500BFF8BC08BC9E467047F4
:1045480054656D7020262048756D6964697479001A
:10455800457272205478200D0A00000045727220BE
:104568005278200D0A000000543D202D25752C2579
:104578003175204320483D25752C253175200D0ABD
:1045880000000000543D25752C2531752043204836
:104598003D25752C253175200D0A00005F5F4245C9
:1045A8005F53544D33325F32315F5F0003040608B6
:1045B8000C1018203000000000000000000000006F
:1045C80001020304060708090000000001020304B1
:1045D800232D302B2000686C4C00656667454647E4
:1045E8000030313233343536373839414243444567
:1045F80046003031323334353637383961626364D6
:0446080065660000E3
:08460C0098C1FF7F01000000CE
:044614006101000838
:044618003D01000858
:10461C0068FF1F00100000000100000010000020C7
:10462C00000000000000000000000000000000007E
:10463C00000000000000000000000000000000006E
:10464C00000000000000000000000000000000005E
:10465C00000000000000000000000000000000004E
:10466C00000000000000000000000000000000003E
:10467C00000000000000000000000000000000002E
:0400000508003C4D66
:00000001FF
